{
  "_format": "hh-sol-artifact-1",
  "contractName": "Marketplace",
  "sourceName": "contracts/marketplace/Marketplace.sol",
  "abi": [
    {
      "inputs": [
        {
          "internalType": "address",
          "name": "_tradeRecordContractAddress",
          "type": "address"
        }
      ],
      "stateMutability": "nonpayable",
      "type": "constructor"
    },
    {
      "anonymous": false,
      "inputs": [
        {
          "indexed": false,
          "internalType": "string",
          "name": "metaUuid",
          "type": "string"
        },
        {
          "indexed": false,
          "internalType": "uint256",
          "name": "productId",
          "type": "uint256"
        },
        {
          "indexed": false,
          "internalType": "string",
          "name": "name",
          "type": "string"
        },
        {
          "indexed": false,
          "internalType": "uint32",
          "name": "price",
          "type": "uint32"
        },
        {
          "indexed": false,
          "internalType": "uint32",
          "name": "quantity",
          "type": "uint32"
        },
        {
          "indexed": false,
          "internalType": "address",
          "name": "seller",
          "type": "address"
        },
        {
          "indexed": false,
          "internalType": "string",
          "name": "sellerUuid",
          "type": "string"
        }
      ],
      "name": "ProductAdded",
      "type": "event"
    },
    {
      "anonymous": false,
      "inputs": [
        {
          "indexed": false,
          "internalType": "uint256",
          "name": "productId",
          "type": "uint256"
        },
        {
          "indexed": false,
          "internalType": "address",
          "name": "buyer",
          "type": "address"
        },
        {
          "indexed": false,
          "internalType": "string",
          "name": "buyerUuid",
          "type": "string"
        },
        {
          "indexed": false,
          "internalType": "uint32",
          "name": "quantity",
          "type": "uint32"
        }
      ],
      "name": "ProductPurchased",
      "type": "event"
    },
    {
      "anonymous": false,
      "inputs": [
        {
          "indexed": false,
          "internalType": "uint256",
          "name": "productId",
          "type": "uint256"
        }
      ],
      "name": "ProductRemoved",
      "type": "event"
    },
    {
      "inputs": [
        {
          "internalType": "string",
          "name": "_metaUuid",
          "type": "string"
        },
        {
          "internalType": "string",
          "name": "_name",
          "type": "string"
        },
        {
          "internalType": "uint32",
          "name": "_price",
          "type": "uint32"
        },
        {
          "internalType": "uint32",
          "name": "_quantity",
          "type": "uint32"
        },
        {
          "internalType": "string",
          "name": "_sellerUuid",
          "type": "string"
        }
      ],
      "name": "addProduct",
      "outputs": [],
      "stateMutability": "nonpayable",
      "type": "function"
    },
    {
      "inputs": [],
      "name": "productIndex",
      "outputs": [
        {
          "internalType": "uint256",
          "name": "",
          "type": "uint256"
        }
      ],
      "stateMutability": "view",
      "type": "function"
    },
    {
      "inputs": [
        {
          "internalType": "uint256",
          "name": "",
          "type": "uint256"
        }
      ],
      "name": "products",
      "outputs": [
        {
          "internalType": "string",
          "name": "metaUuid",
          "type": "string"
        },
        {
          "internalType": "string",
          "name": "name",
          "type": "string"
        },
        {
          "internalType": "uint32",
          "name": "price",
          "type": "uint32"
        },
        {
          "internalType": "uint32",
          "name": "quantity",
          "type": "uint32"
        },
        {
          "internalType": "address",
          "name": "seller",
          "type": "address"
        },
        {
          "internalType": "string",
          "name": "sellerUuid",
          "type": "string"
        }
      ],
      "stateMutability": "view",
      "type": "function"
    },
    {
      "inputs": [
        {
          "internalType": "uint256",
          "name": "_productId",
          "type": "uint256"
        },
        {
          "internalType": "uint32",
          "name": "_quantity",
          "type": "uint32"
        },
        {
          "internalType": "string",
          "name": "_buyerUuid",
          "type": "string"
        }
      ],
      "name": "purchaseProduct",
      "outputs": [],
      "stateMutability": "payable",
      "type": "function"
    },
    {
      "inputs": [
        {
          "internalType": "uint256",
          "name": "_productId",
          "type": "uint256"
        }
      ],
      "name": "removeProduct",
      "outputs": [],
      "stateMutability": "nonpayable",
      "type": "function"
    },
    {
      "inputs": [],
      "name": "tradeRecord",
      "outputs": [
        {
          "internalType": "contract TradeRecord",
          "name": "",
          "type": "address"
        }
      ],
      "stateMutability": "view",
      "type": "function"
    }
  ],
  "bytecode": "0x60806040523480156200001157600080fd5b5060405162001a0f38038062001a0f8339818101604052810190620000379190620000e8565b806000806101000a81548173ffffffffffffffffffffffffffffffffffffffff021916908373ffffffffffffffffffffffffffffffffffffffff160217905550506200011a565b600080fd5b600073ffffffffffffffffffffffffffffffffffffffff82169050919050565b6000620000b08262000083565b9050919050565b620000c281620000a3565b8114620000ce57600080fd5b50565b600081519050620000e281620000b7565b92915050565b6000602082840312156200010157620001006200007e565b5b60006200011184828501620000d1565b91505092915050565b6118e5806200012a6000396000f3fe6080604052600436106100555760003560e01c80635ee95cae1461005a5780637acc0b20146100835780638a8f4896146100c55780639b098c6b146100f0578063c897d5a61461010c578063fd4010d914610137575b600080fd5b34801561006657600080fd5b50610081600480360381019061007c9190610c85565b610160565b005b34801561008f57600080fd5b506100aa60048036038101906100a59190610c85565b610279565b6040516100bc96959493929190610da2565b60405180910390f35b3480156100d157600080fd5b506100da61048d565b6040516100e79190610e77565b60405180910390f35b61010a60048036038101906101059190610ff3565b6104b1565b005b34801561011857600080fd5b5061012161099e565b60405161012e9190611071565b60405180910390f35b34801561014357600080fd5b5061015e6004803603810190610159919061108c565b6109a4565b005b60025481106101a4576040517f08c379a000000000000000000000000000000000000000000000000000000000815260040161019b906111a7565b60405180910390fd5b60016000828152602001908152602001600020600080820160006101c89190610bde565b6001820160006101d89190610bde565b6002820160006101000a81549063ffffffff02191690556002820160046101000a81549063ffffffff02191690556002820160086101000a81549073ffffffffffffffffffffffffffffffffffffffff021916905560038201600061023d9190610bde565b50507f07015631cff457b5b13492c2045e70c6305a0a4aa773e432e79abbe2cf52c1eb8160405161026e9190611071565b60405180910390a150565b600160205280600052604060002060009150905080600001805461029c906111f6565b80601f01602080910402602001604051908101604052809291908181526020018280546102c8906111f6565b80156103155780601f106102ea57610100808354040283529160200191610315565b820191906000526020600020905b8154815290600101906020018083116102f857829003601f168201915b50505050509080600101805461032a906111f6565b80601f0160208091040260200160405190810160405280929190818152602001828054610356906111f6565b80156103a35780601f10610378576101008083540402835291602001916103a3565b820191906000526020600020905b81548152906001019060200180831161038657829003601f168201915b5050505050908060020160009054906101000a900463ffffffff16908060020160049054906101000a900463ffffffff16908060020160089054906101000a900473ffffffffffffffffffffffffffffffffffffffff169080600301805461040a906111f6565b80601f0160208091040260200160405190810160405280929190818152602001828054610436906111f6565b80156104835780601f1061045857610100808354040283529160200191610483565b820191906000526020600020905b81548152906001019060200180831161046657829003601f168201915b5050505050905086565b60008054906101000a900473ffffffffffffffffffffffffffffffffffffffff1681565b60025483106104f5576040517f08c379a00000000000000000000000000000000000000000000000000000000081526004016104ec906111a7565b60405180910390fd5b6000600160008581526020019081526020016000206040518060c0016040529081600082018054610525906111f6565b80601f0160208091040260200160405190810160405280929190818152602001828054610551906111f6565b801561059e5780601f106105735761010080835404028352916020019161059e565b820191906000526020600020905b81548152906001019060200180831161058157829003601f168201915b505050505081526020016001820180546105b7906111f6565b80601f01602080910402602001604051908101604052809291908181526020018280546105e3906111f6565b80156106305780601f1061060557610100808354040283529160200191610630565b820191906000526020600020905b81548152906001019060200180831161061357829003601f168201915b505050505081526020016002820160009054906101000a900463ffffffff1663ffffffff1663ffffffff1681526020016002820160049054906101000a900463ffffffff1663ffffffff1663ffffffff1681526020016002820160089054906101000a900473ffffffffffffffffffffffffffffffffffffffff1673ffffffffffffffffffffffffffffffffffffffff1673ffffffffffffffffffffffffffffffffffffffff1681526020016003820180546106eb906111f6565b80601f0160208091040260200160405190810160405280929190818152602001828054610717906111f6565b80156107645780601f1061073957610100808354040283529160200191610764565b820191906000526020600020905b81548152906001019060200180831161074757829003601f168201915b5050505050815250509050600073ffffffffffffffffffffffffffffffffffffffff16816080015173ffffffffffffffffffffffffffffffffffffffff16036107e2576040517f08c379a00000000000000000000000000000000000000000000000000000000081526004016107d990611273565b60405180910390fd5b60008363ffffffff16826040015163ffffffff1661080091906112c2565b905080341015610845576040517f08c379a000000000000000000000000000000000000000000000000000000000815260040161083c90611350565b60405180910390fd5b83826060018181516108579190611370565b91509063ffffffff16908163ffffffff1681525050816080015173ffffffffffffffffffffffffffffffffffffffff166108fc829081150290604051600060405180830381858888f193505050501580156108b6573d6000803e3d6000fd5b5060008054906101000a900473ffffffffffffffffffffffffffffffffffffffff1673ffffffffffffffffffffffffffffffffffffffff16633fe5050f42868560400151338760800151898960a001516040518863ffffffff1660e01b815260040161092897969594939291906113a8565b600060405180830381600087803b15801561094257600080fd5b505af1158015610956573d6000803e3d6000fd5b505050507fc4fbfc373ab3a679b55b54fa6f5a2c609221ffd06e287d2c4b5c879dd537dd528533858760405161098f9493929190611425565b60405180910390a15050505050565b60025481565b60008363ffffffff16116109ed576040517f08c379a00000000000000000000000000000000000000000000000000000000081526004016109e4906114bd565b60405180910390fd5b60008263ffffffff1611610a36576040517f08c379a0000000000000000000000000000000000000000000000000000000008152600401610a2d9061154f565b60405180910390fd5b60006040518060c001604052808781526020018681526020018563ffffffff1681526020018463ffffffff1681526020013373ffffffffffffffffffffffffffffffffffffffff168152602001838152509050806001600060025481526020019081526020016000206000820151816000019081610ab49190611711565b506020820151816001019081610aca9190611711565b5060408201518160020160006101000a81548163ffffffff021916908363ffffffff16021790555060608201518160020160046101000a81548163ffffffff021916908363ffffffff16021790555060808201518160020160086101000a81548173ffffffffffffffffffffffffffffffffffffffff021916908373ffffffffffffffffffffffffffffffffffffffff16021790555060a0820151816003019081610b759190611711565b509050507f42cdf324566076fd366c9c575646b9b9e8c5b8028bac411d4656b8b5289b3b5c866002548787873388604051610bb697969594939291906117e3565b60405180910390a160026000815480929190610bd190611867565b9190505550505050505050565b508054610bea906111f6565b6000825580601f10610bfc5750610c1b565b601f016020900490600052602060002090810190610c1a9190610c1e565b5b50565b5b80821115610c37576000816000905550600101610c1f565b5090565b6000604051905090565b600080fd5b600080fd5b6000819050919050565b610c6281610c4f565b8114610c6d57600080fd5b50565b600081359050610c7f81610c59565b92915050565b600060208284031215610c9b57610c9a610c45565b5b6000610ca984828501610c70565b91505092915050565b600081519050919050565b600082825260208201905092915050565b60005b83811015610cec578082015181840152602081019050610cd1565b60008484015250505050565b6000601f19601f8301169050919050565b6000610d1482610cb2565b610d1e8185610cbd565b9350610d2e818560208601610cce565b610d3781610cf8565b840191505092915050565b600063ffffffff82169050919050565b610d5b81610d42565b82525050565b600073ffffffffffffffffffffffffffffffffffffffff82169050919050565b6000610d8c82610d61565b9050919050565b610d9c81610d81565b82525050565b600060c0820190508181036000830152610dbc8189610d09565b90508181036020830152610dd08188610d09565b9050610ddf6040830187610d52565b610dec6060830186610d52565b610df96080830185610d93565b81810360a0830152610e0b8184610d09565b9050979650505050505050565b6000819050919050565b6000610e3d610e38610e3384610d61565b610e18565b610d61565b9050919050565b6000610e4f82610e22565b9050919050565b6000610e6182610e44565b9050919050565b610e7181610e56565b82525050565b6000602082019050610e8c6000830184610e68565b92915050565b610e9b81610d42565b8114610ea657600080fd5b50565b600081359050610eb881610e92565b92915050565b600080fd5b600080fd5b7f4e487b7100000000000000000000000000000000000000000000000000000000600052604160045260246000fd5b610f0082610cf8565b810181811067ffffffffffffffff82111715610f1f57610f1e610ec8565b5b80604052505050565b6000610f32610c3b565b9050610f3e8282610ef7565b919050565b600067ffffffffffffffff821115610f5e57610f5d610ec8565b5b610f6782610cf8565b9050602081019050919050565b82818337600083830152505050565b6000610f96610f9184610f43565b610f28565b905082815260208101848484011115610fb257610fb1610ec3565b5b610fbd848285610f74565b509392505050565b600082601f830112610fda57610fd9610ebe565b5b8135610fea848260208601610f83565b91505092915050565b60008060006060848603121561100c5761100b610c45565b5b600061101a86828701610c70565b935050602061102b86828701610ea9565b925050604084013567ffffffffffffffff81111561104c5761104b610c4a565b5b61105886828701610fc5565b9150509250925092565b61106b81610c4f565b82525050565b60006020820190506110866000830184611062565b92915050565b600080600080600060a086880312156110a8576110a7610c45565b5b600086013567ffffffffffffffff8111156110c6576110c5610c4a565b5b6110d288828901610fc5565b955050602086013567ffffffffffffffff8111156110f3576110f2610c4a565b5b6110ff88828901610fc5565b945050604061111088828901610ea9565b935050606061112188828901610ea9565b925050608086013567ffffffffffffffff81111561114257611141610c4a565b5b61114e88828901610fc5565b9150509295509295909350565b7f496e76616c69642070726f647563742049440000000000000000000000000000600082015250565b6000611191601283610cbd565b915061119c8261115b565b602082019050919050565b600060208201905081810360008301526111c081611184565b9050919050565b7f4e487b7100000000000000000000000000000000000000000000000000000000600052602260045260246000fd5b6000600282049050600182168061120e57607f821691505b602082108103611221576112206111c7565b5b50919050565b7f50726f6475637420646f6573206e6f7420657869737400000000000000000000600082015250565b600061125d601683610cbd565b915061126882611227565b602082019050919050565b6000602082019050818103600083015261128c81611250565b9050919050565b7f4e487b7100000000000000000000000000000000000000000000000000000000600052601160045260246000fd5b60006112cd82610c4f565b91506112d883610c4f565b92508282026112e681610c4f565b915082820484148315176112fd576112fc611293565b5b5092915050565b7f496e73756666696369656e742066756e64730000000000000000000000000000600082015250565b600061133a601283610cbd565b915061134582611304565b602082019050919050565b600060208201905081810360008301526113698161132d565b9050919050565b600061137b82610d42565b915061138683610d42565b9250828203905063ffffffff8111156113a2576113a1611293565b5b92915050565b600060e0820190506113bd600083018a611062565b6113ca6020830189610d52565b6113d76040830188610d52565b6113e46060830187610d93565b6113f16080830186610d93565b81810360a08301526114038185610d09565b905081810360c08301526114178184610d09565b905098975050505050505050565b600060808201905061143a6000830187611062565b6114476020830186610d93565b81810360408301526114598185610d09565b90506114686060830184610d52565b95945050505050565b7f5072696365206d7573742062652067726561746572207468616e207a65726f00600082015250565b60006114a7601f83610cbd565b91506114b282611471565b602082019050919050565b600060208201905081810360008301526114d68161149a565b9050919050565b7f5175616e74697479206d7573742062652067726561746572207468616e207a6560008201527f726f000000000000000000000000000000000000000000000000000000000000602082015250565b6000611539602283610cbd565b9150611544826114dd565b604082019050919050565b600060208201905081810360008301526115688161152c565b9050919050565b60008190508160005260206000209050919050565b60006020601f8301049050919050565b600082821b905092915050565b6000600883026115d17fffffffffffffffffffffffffffffffffffffffffffffffffffffffffffffffff82611594565b6115db8683611594565b95508019841693508086168417925050509392505050565b600061160e61160961160484610c4f565b610e18565b610c4f565b9050919050565b6000819050919050565b611628836115f3565b61163c61163482611615565b8484546115a1565b825550505050565b600090565b611651611644565b61165c81848461161f565b505050565b5b8181101561168057611675600082611649565b600181019050611662565b5050565b601f8211156116c5576116968161156f565b61169f84611584565b810160208510156116ae578190505b6116c26116ba85611584565b830182611661565b50505b505050565b600082821c905092915050565b60006116e8600019846008026116ca565b1980831691505092915050565b600061170183836116d7565b9150826002028217905092915050565b61171a82610cb2565b67ffffffffffffffff81111561173357611732610ec8565b5b61173d82546111f6565b611748828285611684565b600060209050601f83116001811461177b5760008415611769578287015190505b61177385826116f5565b8655506117db565b601f1984166117898661156f565b60005b828110156117b15784890151825560018201915060208501945060208101905061178c565b868310156117ce57848901516117ca601f8916826116d7565b8355505b6001600288020188555050505b505050505050565b600060e08201905081810360008301526117fd818a610d09565b905061180c6020830189611062565b818103604083015261181e8188610d09565b905061182d6060830187610d52565b61183a6080830186610d52565b61184760a0830185610d93565b81810360c08301526118598184610d09565b905098975050505050505050565b600061187282610c4f565b91507fffffffffffffffffffffffffffffffffffffffffffffffffffffffffffffffff82036118a4576118a3611293565b5b60018201905091905056fea2646970667358221220f69db8b5df14c7ebb0b987df07cf7101d2148b75261864e222d87ab090f4aa7a64736f6c63430008180033",
  "linkReferences": {},
  "deployedLinkReferences": {}
}