{
  "_format": "hh-sol-artifact-1",
  "contractName": "Marketplace",
  "sourceName": "contracts/marketplace/Marketplace.sol",
  "abi": [
    {
      "inputs": [
        {
          "internalType": "address",
          "name": "_tradeRecordContractAddress",
          "type": "address"
        }
      ],
      "stateMutability": "nonpayable",
      "type": "constructor"
    },
    {
      "inputs": [
        {
          "internalType": "string",
          "name": "_metaUuid",
          "type": "string"
        },
        {
          "internalType": "string",
          "name": "_name",
          "type": "string"
        },
        {
          "internalType": "uint256",
          "name": "_price",
          "type": "uint256"
        },
        {
          "internalType": "uint32",
          "name": "_quantity",
          "type": "uint32"
        },
        {
          "internalType": "string",
          "name": "_sellerUuid",
          "type": "string"
        }
      ],
      "name": "addProduct",
      "outputs": [],
      "stateMutability": "nonpayable",
      "type": "function"
    },
    {
      "inputs": [],
      "name": "getBalance",
      "outputs": [
        {
          "internalType": "uint256",
          "name": "",
          "type": "uint256"
        }
      ],
      "stateMutability": "view",
      "type": "function"
    },
    {
      "inputs": [
        {
          "internalType": "string",
          "name": "_metaUuid",
          "type": "string"
        }
      ],
      "name": "getProductByMetaUuid",
      "outputs": [
        {
          "components": [
            {
              "internalType": "string",
              "name": "metaUuid",
              "type": "string"
            },
            {
              "internalType": "string",
              "name": "name",
              "type": "string"
            },
            {
              "internalType": "uint256",
              "name": "price",
              "type": "uint256"
            },
            {
              "internalType": "uint32",
              "name": "quantity",
              "type": "uint32"
            },
            {
              "internalType": "address",
              "name": "seller",
              "type": "address"
            },
            {
              "internalType": "string",
              "name": "sellerUuid",
              "type": "string"
            }
          ],
          "internalType": "struct Marketplace.Product",
          "name": "",
          "type": "tuple"
        }
      ],
      "stateMutability": "view",
      "type": "function"
    },
    {
      "inputs": [
        {
          "internalType": "string",
          "name": "",
          "type": "string"
        }
      ],
      "name": "productIdsByMetaUuid",
      "outputs": [
        {
          "internalType": "uint256",
          "name": "",
          "type": "uint256"
        }
      ],
      "stateMutability": "view",
      "type": "function"
    },
    {
      "inputs": [],
      "name": "productIndex",
      "outputs": [
        {
          "internalType": "uint256",
          "name": "",
          "type": "uint256"
        }
      ],
      "stateMutability": "view",
      "type": "function"
    },
    {
      "inputs": [
        {
          "internalType": "uint256",
          "name": "",
          "type": "uint256"
        }
      ],
      "name": "products",
      "outputs": [
        {
          "internalType": "string",
          "name": "metaUuid",
          "type": "string"
        },
        {
          "internalType": "string",
          "name": "name",
          "type": "string"
        },
        {
          "internalType": "uint256",
          "name": "price",
          "type": "uint256"
        },
        {
          "internalType": "uint32",
          "name": "quantity",
          "type": "uint32"
        },
        {
          "internalType": "address",
          "name": "seller",
          "type": "address"
        },
        {
          "internalType": "string",
          "name": "sellerUuid",
          "type": "string"
        }
      ],
      "stateMutability": "view",
      "type": "function"
    },
    {
      "inputs": [
        {
          "internalType": "string",
          "name": "_metaUuid",
          "type": "string"
        },
        {
          "internalType": "uint32",
          "name": "_quantity",
          "type": "uint32"
        },
        {
          "internalType": "string",
          "name": "_buyerUuid",
          "type": "string"
        }
      ],
      "name": "purchaseProduct",
      "outputs": [],
      "stateMutability": "payable",
      "type": "function"
    },
    {
      "inputs": [
        {
          "internalType": "uint256",
          "name": "_productId",
          "type": "uint256"
        }
      ],
      "name": "removeProduct",
      "outputs": [],
      "stateMutability": "nonpayable",
      "type": "function"
    },
    {
      "inputs": [],
      "name": "tradeRecord",
      "outputs": [
        {
          "internalType": "contract TradeRecord",
          "name": "",
          "type": "address"
        }
      ],
      "stateMutability": "view",
      "type": "function"
    },
    {
      "stateMutability": "payable",
      "type": "receive"
    }
  ],
  "bytecode": "0x60806040523480156200001157600080fd5b5060405162001cff38038062001cff8339818101604052810190620000379190620000e8565b806000806101000a81548173ffffffffffffffffffffffffffffffffffffffff021916908373ffffffffffffffffffffffffffffffffffffffff160217905550506200011a565b600080fd5b600073ffffffffffffffffffffffffffffffffffffffff82169050919050565b6000620000b08262000083565b9050919050565b620000c281620000a3565b8114620000ce57600080fd5b50565b600081519050620000e281620000b7565b92915050565b6000602082840312156200010157620001006200007e565b5b60006200011184828501620000d1565b91505092915050565b611bd5806200012a6000396000f3fe60806040526004361061008a5760003560e01c80637acc0b20116100595780637acc0b201461012f5780638a8f489614610171578063adb3422f1461019c578063c897d5a6146101d9578063e94cb8c41461020457610091565b8063086911571461009657806312065fe0146100b257806318384e71146100dd5780635ee95cae1461010657610091565b3661009157005b600080fd5b6100b060048036038101906100ab9190610ef9565b610241565b005b3480156100be57600080fd5b506100c76104ff565b6040516100d49190610f9d565b60405180910390f35b3480156100e957600080fd5b5061010460048036038101906100ff9190610fe4565b610507565b005b34801561011257600080fd5b5061012d600480360381019061012891906110b3565b6106f8565b005b34801561013b57600080fd5b50610156600480360381019061015191906110b3565b6107cb565b604051610168969594939291906111af565b60405180910390f35b34801561017d57600080fd5b506101866109cf565b6040516101939190611284565b60405180910390f35b3480156101a857600080fd5b506101c360048036038101906101be919061129f565b6109f3565b6040516101d091906113f6565b60405180910390f35b3480156101e557600080fd5b506101ee610c80565b6040516101fb9190610f9d565b60405180910390f35b34801561021057600080fd5b5061022b6004803603810190610226919061129f565b610c86565b6040516102389190610f9d565b60405180910390f35b60006002846040516102539190611454565b90815260200160405180910390205490506000600160008381526020019081526020016000209050600073ffffffffffffffffffffffffffffffffffffffff168160030160049054906101000a900473ffffffffffffffffffffffffffffffffffffffff1673ffffffffffffffffffffffffffffffffffffffff160361030e576040517f08c379a0000000000000000000000000000000000000000000000000000000008152600401610305906114b7565b60405180910390fd5b60008463ffffffff1682600201546103269190611506565b9050848260030160008282829054906101000a900463ffffffff1661034b9190611548565b92506101000a81548163ffffffff021916908363ffffffff1602179055503373ffffffffffffffffffffffffffffffffffffffff16318111156103c3576040517f08c379a00000000000000000000000000000000000000000000000000000000081526004016103ba906115cc565b60405180910390fd5b8160030160049054906101000a900473ffffffffffffffffffffffffffffffffffffffff1673ffffffffffffffffffffffffffffffffffffffff166108fc829081150290604051600060405180830381858888f1935050505015801561042d573d6000803e3d6000fd5b5060008054906101000a900473ffffffffffffffffffffffffffffffffffffffff1673ffffffffffffffffffffffffffffffffffffffff16637bc064c942878560020154338760030160049054906101000a900473ffffffffffffffffffffffffffffffffffffffff168a896004018e8b6001016040518a63ffffffff1660e01b81526004016104c5999897969594939291906116e5565b600060405180830381600087803b1580156104df57600080fd5b505af11580156104f3573d6000803e3d6000fd5b50505050505050505050565b600047905090565b6000831161054a576040517f08c379a0000000000000000000000000000000000000000000000000000000008152600401610541906117da565b60405180910390fd5b60008263ffffffff1611610593576040517f08c379a000000000000000000000000000000000000000000000000000000000815260040161058a9061186c565b60405180910390fd5b60006040518060c001604052808781526020018681526020018581526020018463ffffffff1681526020013373ffffffffffffffffffffffffffffffffffffffff16815260200183815250905080600160006003548152602001908152602001600020600082015181600001908161060b9190611a19565b5060208201518160010190816106219190611a19565b506040820151816002015560608201518160030160006101000a81548163ffffffff021916908363ffffffff16021790555060808201518160030160046101000a81548173ffffffffffffffffffffffffffffffffffffffff021916908373ffffffffffffffffffffffffffffffffffffffff16021790555060a08201518160040190816106af9190611a19565b509050506003546002876040516106c69190611454565b908152602001604051809103902081905550600360008154809291906106eb90611aeb565b9190505550505050505050565b600354811061073c576040517f08c379a000000000000000000000000000000000000000000000000000000000815260040161073390611b7f565b60405180910390fd5b60016000828152602001908152602001600020600080820160006107609190610cb4565b6001820160006107709190610cb4565b60028201600090556003820160006101000a81549063ffffffff02191690556003820160046101000a81549073ffffffffffffffffffffffffffffffffffffffff02191690556004820160006107c69190610cb4565b505050565b60016020528060005260406000206000915090508060000180546107ee9061161b565b80601f016020809104026020016040519081016040528092919081815260200182805461081a9061161b565b80156108675780601f1061083c57610100808354040283529160200191610867565b820191906000526020600020905b81548152906001019060200180831161084a57829003601f168201915b50505050509080600101805461087c9061161b565b80601f01602080910402602001604051908101604052809291908181526020018280546108a89061161b565b80156108f55780601f106108ca576101008083540402835291602001916108f5565b820191906000526020600020905b8154815290600101906020018083116108d857829003601f168201915b5050505050908060020154908060030160009054906101000a900463ffffffff16908060030160049054906101000a900473ffffffffffffffffffffffffffffffffffffffff169080600401805461094c9061161b565b80601f01602080910402602001604051908101604052809291908181526020018280546109789061161b565b80156109c55780601f1061099a576101008083540402835291602001916109c5565b820191906000526020600020905b8154815290600101906020018083116109a857829003601f168201915b5050505050905086565b60008054906101000a900473ffffffffffffffffffffffffffffffffffffffff1681565b6109fb610cf4565b6000600283604051610a0d9190611454565b9081526020016040518091039020549050600160008281526020019081526020016000206040518060c0016040529081600082018054610a4c9061161b565b80601f0160208091040260200160405190810160405280929190818152602001828054610a789061161b565b8015610ac55780601f10610a9a57610100808354040283529160200191610ac5565b820191906000526020600020905b815481529060010190602001808311610aa857829003601f168201915b50505050508152602001600182018054610ade9061161b565b80601f0160208091040260200160405190810160405280929190818152602001828054610b0a9061161b565b8015610b575780601f10610b2c57610100808354040283529160200191610b57565b820191906000526020600020905b815481529060010190602001808311610b3a57829003601f168201915b50505050508152602001600282015481526020016003820160009054906101000a900463ffffffff1663ffffffff1663ffffffff1681526020016003820160049054906101000a900473ffffffffffffffffffffffffffffffffffffffff1673ffffffffffffffffffffffffffffffffffffffff1673ffffffffffffffffffffffffffffffffffffffff168152602001600482018054610bf69061161b565b80601f0160208091040260200160405190810160405280929190818152602001828054610c229061161b565b8015610c6f5780601f10610c4457610100808354040283529160200191610c6f565b820191906000526020600020905b815481529060010190602001808311610c5257829003601f168201915b505050505081525050915050919050565b60035481565b6002818051602081018201805184825260208301602085012081835280955050505050506000915090505481565b508054610cc09061161b565b6000825580601f10610cd25750610cf1565b601f016020900490600052602060002090810190610cf09190610d46565b5b50565b6040518060c00160405280606081526020016060815260200160008152602001600063ffffffff168152602001600073ffffffffffffffffffffffffffffffffffffffff168152602001606081525090565b5b80821115610d5f576000816000905550600101610d47565b5090565b6000604051905090565b600080fd5b600080fd5b600080fd5b600080fd5b6000601f19601f8301169050919050565b7f4e487b7100000000000000000000000000000000000000000000000000000000600052604160045260246000fd5b610dca82610d81565b810181811067ffffffffffffffff82111715610de957610de8610d92565b5b80604052505050565b6000610dfc610d63565b9050610e088282610dc1565b919050565b600067ffffffffffffffff821115610e2857610e27610d92565b5b610e3182610d81565b9050602081019050919050565b82818337600083830152505050565b6000610e60610e5b84610e0d565b610df2565b905082815260208101848484011115610e7c57610e7b610d7c565b5b610e87848285610e3e565b509392505050565b600082601f830112610ea457610ea3610d77565b5b8135610eb4848260208601610e4d565b91505092915050565b600063ffffffff82169050919050565b610ed681610ebd565b8114610ee157600080fd5b50565b600081359050610ef381610ecd565b92915050565b600080600060608486031215610f1257610f11610d6d565b5b600084013567ffffffffffffffff811115610f3057610f2f610d72565b5b610f3c86828701610e8f565b9350506020610f4d86828701610ee4565b925050604084013567ffffffffffffffff811115610f6e57610f6d610d72565b5b610f7a86828701610e8f565b9150509250925092565b6000819050919050565b610f9781610f84565b82525050565b6000602082019050610fb26000830184610f8e565b92915050565b610fc181610f84565b8114610fcc57600080fd5b50565b600081359050610fde81610fb8565b92915050565b600080600080600060a0868803121561100057610fff610d6d565b5b600086013567ffffffffffffffff81111561101e5761101d610d72565b5b61102a88828901610e8f565b955050602086013567ffffffffffffffff81111561104b5761104a610d72565b5b61105788828901610e8f565b945050604061106888828901610fcf565b935050606061107988828901610ee4565b925050608086013567ffffffffffffffff81111561109a57611099610d72565b5b6110a688828901610e8f565b9150509295509295909350565b6000602082840312156110c9576110c8610d6d565b5b60006110d784828501610fcf565b91505092915050565b600081519050919050565b600082825260208201905092915050565b60005b8381101561111a5780820151818401526020810190506110ff565b60008484015250505050565b6000611131826110e0565b61113b81856110eb565b935061114b8185602086016110fc565b61115481610d81565b840191505092915050565b61116881610ebd565b82525050565b600073ffffffffffffffffffffffffffffffffffffffff82169050919050565b60006111998261116e565b9050919050565b6111a98161118e565b82525050565b600060c08201905081810360008301526111c98189611126565b905081810360208301526111dd8188611126565b90506111ec6040830187610f8e565b6111f9606083018661115f565b61120660808301856111a0565b81810360a08301526112188184611126565b9050979650505050505050565b6000819050919050565b600061124a6112456112408461116e565b611225565b61116e565b9050919050565b600061125c8261122f565b9050919050565b600061126e82611251565b9050919050565b61127e81611263565b82525050565b60006020820190506112996000830184611275565b92915050565b6000602082840312156112b5576112b4610d6d565b5b600082013567ffffffffffffffff8111156112d3576112d2610d72565b5b6112df84828501610e8f565b91505092915050565b600082825260208201905092915050565b6000611304826110e0565b61130e81856112e8565b935061131e8185602086016110fc565b61132781610d81565b840191505092915050565b61133b81610f84565b82525050565b61134a81610ebd565b82525050565b6113598161118e565b82525050565b600060c083016000830151848203600086015261137c82826112f9565b9150506020830151848203602086015261139682826112f9565b91505060408301516113ab6040860182611332565b5060608301516113be6060860182611341565b5060808301516113d16080860182611350565b5060a083015184820360a08601526113e982826112f9565b9150508091505092915050565b60006020820190508181036000830152611410818461135f565b905092915050565b600081905092915050565b600061142e826110e0565b6114388185611418565b93506114488185602086016110fc565b80840191505092915050565b60006114608284611423565b915081905092915050565b7f50726f6475637420646f6573206e6f7420657869737400000000000000000000600082015250565b60006114a16016836110eb565b91506114ac8261146b565b602082019050919050565b600060208201905081810360008301526114d081611494565b9050919050565b7f4e487b7100000000000000000000000000000000000000000000000000000000600052601160045260246000fd5b600061151182610f84565b915061151c83610f84565b925082820261152a81610f84565b91508282048414831517611541576115406114d7565b5b5092915050565b600061155382610ebd565b915061155e83610ebd565b9250828203905063ffffffff81111561157a576115796114d7565b5b92915050565b7f496e73756666696369656e742062616c616e6365000000000000000000000000600082015250565b60006115b66014836110eb565b91506115c182611580565b602082019050919050565b600060208201905081810360008301526115e5816115a9565b9050919050565b7f4e487b7100000000000000000000000000000000000000000000000000000000600052602260045260246000fd5b6000600282049050600182168061163357607f821691505b602082108103611646576116456115ec565b5b50919050565b60008190508160005260206000209050919050565b6000815461166e8161161b565b61167881866110eb565b9450600182166000811461169357600181146116a9576116dc565b60ff1983168652811515602002860193506116dc565b6116b28561164c565b60005b838110156116d4578154818901526001820191506020810190506116b5565b808801955050505b50505092915050565b6000610120820190506116fb600083018c610f8e565b611708602083018b61115f565b611715604083018a610f8e565b61172260608301896111a0565b61172f60808301886111a0565b81810360a08301526117418187611126565b905081810360c08301526117558186611661565b905081810360e08301526117698185611126565b905081810361010083015261177e8184611661565b90509a9950505050505050505050565b7f5072696365206d7573742062652067726561746572207468616e207a65726f00600082015250565b60006117c4601f836110eb565b91506117cf8261178e565b602082019050919050565b600060208201905081810360008301526117f3816117b7565b9050919050565b7f5175616e74697479206d7573742062652067726561746572207468616e207a6560008201527f726f000000000000000000000000000000000000000000000000000000000000602082015250565b60006118566022836110eb565b9150611861826117fa565b604082019050919050565b6000602082019050818103600083015261188581611849565b9050919050565b60006020601f8301049050919050565b600082821b905092915050565b6000600883026118d97fffffffffffffffffffffffffffffffffffffffffffffffffffffffffffffffff8261189c565b6118e3868361189c565b95508019841693508086168417925050509392505050565b600061191661191161190c84610f84565b611225565b610f84565b9050919050565b6000819050919050565b611930836118fb565b61194461193c8261191d565b8484546118a9565b825550505050565b600090565b61195961194c565b611964818484611927565b505050565b5b818110156119885761197d600082611951565b60018101905061196a565b5050565b601f8211156119cd5761199e8161164c565b6119a78461188c565b810160208510156119b6578190505b6119ca6119c28561188c565b830182611969565b50505b505050565b600082821c905092915050565b60006119f0600019846008026119d2565b1980831691505092915050565b6000611a0983836119df565b9150826002028217905092915050565b611a22826110e0565b67ffffffffffffffff811115611a3b57611a3a610d92565b5b611a45825461161b565b611a5082828561198c565b600060209050601f831160018114611a835760008415611a71578287015190505b611a7b85826119fd565b865550611ae3565b601f198416611a918661164c565b60005b82811015611ab957848901518255600182019150602085019450602081019050611a94565b86831015611ad65784890151611ad2601f8916826119df565b8355505b6001600288020188555050505b505050505050565b6000611af682610f84565b91507fffffffffffffffffffffffffffffffffffffffffffffffffffffffffffffffff8203611b2857611b276114d7565b5b600182019050919050565b7f496e76616c69642070726f647563742049440000000000000000000000000000600082015250565b6000611b696012836110eb565b9150611b7482611b33565b602082019050919050565b60006020820190508181036000830152611b9881611b5c565b905091905056fea26469706673582212208555daee8806b13a375b4a77304811367a97909c47acfc808215d38d8a245aa964736f6c63430008180033",
  "linkReferences": {},
  "deployedLinkReferences": {}
}