{
  "_format": "hh-sol-artifact-1",
  "contractName": "Marketplace",
  "sourceName": "contracts/marketplace/Marketplace.sol",
  "abi": [
    {
      "inputs": [
        {
          "internalType": "address",
          "name": "_tradeRecordContractAddress",
          "type": "address"
        }
      ],
      "stateMutability": "nonpayable",
      "type": "constructor"
    },
    {
      "inputs": [
        {
          "internalType": "string",
          "name": "_metaUuid",
          "type": "string"
        },
        {
          "internalType": "string",
          "name": "_name",
          "type": "string"
        },
        {
          "internalType": "uint256",
          "name": "_price",
          "type": "uint256"
        },
        {
          "internalType": "uint32",
          "name": "_quantity",
          "type": "uint32"
        },
        {
          "internalType": "string",
          "name": "_sellerUuid",
          "type": "string"
        }
      ],
      "name": "addProduct",
      "outputs": [],
      "stateMutability": "nonpayable",
      "type": "function"
    },
    {
      "inputs": [],
      "name": "getBalance",
      "outputs": [
        {
          "internalType": "uint256",
          "name": "",
          "type": "uint256"
        }
      ],
      "stateMutability": "view",
      "type": "function"
    },
    {
      "inputs": [
        {
          "internalType": "string",
          "name": "_metaUuid",
          "type": "string"
        }
      ],
      "name": "getProductByMetaUuid",
      "outputs": [
        {
          "components": [
            {
              "internalType": "string",
              "name": "metaUuid",
              "type": "string"
            },
            {
              "internalType": "string",
              "name": "name",
              "type": "string"
            },
            {
              "internalType": "uint256",
              "name": "price",
              "type": "uint256"
            },
            {
              "internalType": "uint32",
              "name": "quantity",
              "type": "uint32"
            },
            {
              "internalType": "address",
              "name": "seller",
              "type": "address"
            },
            {
              "internalType": "string",
              "name": "sellerUuid",
              "type": "string"
            }
          ],
          "internalType": "struct Marketplace.Product",
          "name": "",
          "type": "tuple"
        }
      ],
      "stateMutability": "view",
      "type": "function"
    },
    {
      "inputs": [
        {
          "internalType": "string",
          "name": "",
          "type": "string"
        }
      ],
      "name": "productIdsByMetaUuid",
      "outputs": [
        {
          "internalType": "uint256",
          "name": "",
          "type": "uint256"
        }
      ],
      "stateMutability": "view",
      "type": "function"
    },
    {
      "inputs": [],
      "name": "productIndex",
      "outputs": [
        {
          "internalType": "uint256",
          "name": "",
          "type": "uint256"
        }
      ],
      "stateMutability": "view",
      "type": "function"
    },
    {
      "inputs": [
        {
          "internalType": "uint256",
          "name": "",
          "type": "uint256"
        }
      ],
      "name": "products",
      "outputs": [
        {
          "internalType": "string",
          "name": "metaUuid",
          "type": "string"
        },
        {
          "internalType": "string",
          "name": "name",
          "type": "string"
        },
        {
          "internalType": "uint256",
          "name": "price",
          "type": "uint256"
        },
        {
          "internalType": "uint32",
          "name": "quantity",
          "type": "uint32"
        },
        {
          "internalType": "address",
          "name": "seller",
          "type": "address"
        },
        {
          "internalType": "string",
          "name": "sellerUuid",
          "type": "string"
        }
      ],
      "stateMutability": "view",
      "type": "function"
    },
    {
      "inputs": [
        {
          "internalType": "string",
          "name": "_metaUuid",
          "type": "string"
        },
        {
          "internalType": "uint32",
          "name": "_quantity",
          "type": "uint32"
        },
        {
          "internalType": "string",
          "name": "_buyerUuid",
          "type": "string"
        }
      ],
      "name": "purchaseProduct",
      "outputs": [],
      "stateMutability": "payable",
      "type": "function"
    },
    {
      "inputs": [
        {
          "internalType": "uint256",
          "name": "_productId",
          "type": "uint256"
        }
      ],
      "name": "removeProduct",
      "outputs": [],
      "stateMutability": "nonpayable",
      "type": "function"
    },
    {
      "inputs": [],
      "name": "tradeRecord",
      "outputs": [
        {
          "internalType": "contract TradeRecord",
          "name": "",
          "type": "address"
        }
      ],
      "stateMutability": "view",
      "type": "function"
    },
    {
      "stateMutability": "payable",
      "type": "receive"
    }
  ],
  "bytecode": "0x60806040523480156200001157600080fd5b5060405162001ccc38038062001ccc8339818101604052810190620000379190620000e8565b806000806101000a81548173ffffffffffffffffffffffffffffffffffffffff021916908373ffffffffffffffffffffffffffffffffffffffff160217905550506200011a565b600080fd5b600073ffffffffffffffffffffffffffffffffffffffff82169050919050565b6000620000b08262000083565b9050919050565b620000c281620000a3565b8114620000ce57600080fd5b50565b600081519050620000e281620000b7565b92915050565b6000602082840312156200010157620001006200007e565b5b60006200011184828501620000d1565b91505092915050565b611ba2806200012a6000396000f3fe60806040526004361061008a5760003560e01c80637acc0b20116100595780637acc0b201461012f5780638a8f489614610171578063adb3422f1461019c578063c897d5a6146101d9578063e94cb8c41461020457610091565b8063086911571461009657806312065fe0146100b257806318384e71146100dd5780635ee95cae1461010657610091565b3661009157005b600080fd5b6100b060048036038101906100ab9190610ef2565b610241565b005b3480156100be57600080fd5b506100c76104f8565b6040516100d49190610f96565b60405180910390f35b3480156100e957600080fd5b5061010460048036038101906100ff9190610fdd565b610500565b005b34801561011257600080fd5b5061012d600480360381019061012891906110ac565b6106f1565b005b34801561013b57600080fd5b50610156600480360381019061015191906110ac565b6107c4565b604051610168969594939291906111a8565b60405180910390f35b34801561017d57600080fd5b506101866109c8565b604051610193919061127d565b60405180910390f35b3480156101a857600080fd5b506101c360048036038101906101be9190611298565b6109ec565b6040516101d091906113ef565b60405180910390f35b3480156101e557600080fd5b506101ee610c79565b6040516101fb9190610f96565b60405180910390f35b34801561021057600080fd5b5061022b60048036038101906102269190611298565b610c7f565b6040516102389190610f96565b60405180910390f35b6000600284604051610253919061144d565b90815260200160405180910390205490506000600160008381526020019081526020016000209050600073ffffffffffffffffffffffffffffffffffffffff168160030160049054906101000a900473ffffffffffffffffffffffffffffffffffffffff1673ffffffffffffffffffffffffffffffffffffffff160361030e576040517f08c379a0000000000000000000000000000000000000000000000000000000008152600401610305906114b0565b60405180910390fd5b60008463ffffffff16826002015461032691906114ff565b9050848260030160008282829054906101000a900463ffffffff1661034b9190611541565b92506101000a81548163ffffffff021916908363ffffffff1602179055503373ffffffffffffffffffffffffffffffffffffffff16318111156103c3576040517f08c379a00000000000000000000000000000000000000000000000000000000081526004016103ba906115c5565b60405180910390fd5b8160030160049054906101000a900473ffffffffffffffffffffffffffffffffffffffff1673ffffffffffffffffffffffffffffffffffffffff166108fc829081150290604051600060405180830381858888f1935050505015801561042d573d6000803e3d6000fd5b5060008054906101000a900473ffffffffffffffffffffffffffffffffffffffff1673ffffffffffffffffffffffffffffffffffffffff16632ae1efca42878560020154338760030160049054906101000a900473ffffffffffffffffffffffffffffffffffffffff168a896004016040518863ffffffff1660e01b81526004016104be97969594939291906116de565b600060405180830381600087803b1580156104d857600080fd5b505af11580156104ec573d6000803e3d6000fd5b50505050505050505050565b600047905090565b60008311610543576040517f08c379a000000000000000000000000000000000000000000000000000000000815260040161053a906117a7565b60405180910390fd5b60008263ffffffff161161058c576040517f08c379a000000000000000000000000000000000000000000000000000000000815260040161058390611839565b60405180910390fd5b60006040518060c001604052808781526020018681526020018581526020018463ffffffff1681526020013373ffffffffffffffffffffffffffffffffffffffff16815260200183815250905080600160006003548152602001908152602001600020600082015181600001908161060491906119e6565b50602082015181600101908161061a91906119e6565b506040820151816002015560608201518160030160006101000a81548163ffffffff021916908363ffffffff16021790555060808201518160030160046101000a81548173ffffffffffffffffffffffffffffffffffffffff021916908373ffffffffffffffffffffffffffffffffffffffff16021790555060a08201518160040190816106a891906119e6565b509050506003546002876040516106bf919061144d565b908152602001604051809103902081905550600360008154809291906106e490611ab8565b9190505550505050505050565b6003548110610735576040517f08c379a000000000000000000000000000000000000000000000000000000000815260040161072c90611b4c565b60405180910390fd5b60016000828152602001908152602001600020600080820160006107599190610cad565b6001820160006107699190610cad565b60028201600090556003820160006101000a81549063ffffffff02191690556003820160046101000a81549073ffffffffffffffffffffffffffffffffffffffff02191690556004820160006107bf9190610cad565b505050565b60016020528060005260406000206000915090508060000180546107e790611614565b80601f016020809104026020016040519081016040528092919081815260200182805461081390611614565b80156108605780601f1061083557610100808354040283529160200191610860565b820191906000526020600020905b81548152906001019060200180831161084357829003601f168201915b50505050509080600101805461087590611614565b80601f01602080910402602001604051908101604052809291908181526020018280546108a190611614565b80156108ee5780601f106108c3576101008083540402835291602001916108ee565b820191906000526020600020905b8154815290600101906020018083116108d157829003601f168201915b5050505050908060020154908060030160009054906101000a900463ffffffff16908060030160049054906101000a900473ffffffffffffffffffffffffffffffffffffffff169080600401805461094590611614565b80601f016020809104026020016040519081016040528092919081815260200182805461097190611614565b80156109be5780601f10610993576101008083540402835291602001916109be565b820191906000526020600020905b8154815290600101906020018083116109a157829003601f168201915b5050505050905086565b60008054906101000a900473ffffffffffffffffffffffffffffffffffffffff1681565b6109f4610ced565b6000600283604051610a06919061144d565b9081526020016040518091039020549050600160008281526020019081526020016000206040518060c0016040529081600082018054610a4590611614565b80601f0160208091040260200160405190810160405280929190818152602001828054610a7190611614565b8015610abe5780601f10610a9357610100808354040283529160200191610abe565b820191906000526020600020905b815481529060010190602001808311610aa157829003601f168201915b50505050508152602001600182018054610ad790611614565b80601f0160208091040260200160405190810160405280929190818152602001828054610b0390611614565b8015610b505780601f10610b2557610100808354040283529160200191610b50565b820191906000526020600020905b815481529060010190602001808311610b3357829003601f168201915b50505050508152602001600282015481526020016003820160009054906101000a900463ffffffff1663ffffffff1663ffffffff1681526020016003820160049054906101000a900473ffffffffffffffffffffffffffffffffffffffff1673ffffffffffffffffffffffffffffffffffffffff1673ffffffffffffffffffffffffffffffffffffffff168152602001600482018054610bef90611614565b80601f0160208091040260200160405190810160405280929190818152602001828054610c1b90611614565b8015610c685780601f10610c3d57610100808354040283529160200191610c68565b820191906000526020600020905b815481529060010190602001808311610c4b57829003601f168201915b505050505081525050915050919050565b60035481565b6002818051602081018201805184825260208301602085012081835280955050505050506000915090505481565b508054610cb990611614565b6000825580601f10610ccb5750610cea565b601f016020900490600052602060002090810190610ce99190610d3f565b5b50565b6040518060c00160405280606081526020016060815260200160008152602001600063ffffffff168152602001600073ffffffffffffffffffffffffffffffffffffffff168152602001606081525090565b5b80821115610d58576000816000905550600101610d40565b5090565b6000604051905090565b600080fd5b600080fd5b600080fd5b600080fd5b6000601f19601f8301169050919050565b7f4e487b7100000000000000000000000000000000000000000000000000000000600052604160045260246000fd5b610dc382610d7a565b810181811067ffffffffffffffff82111715610de257610de1610d8b565b5b80604052505050565b6000610df5610d5c565b9050610e018282610dba565b919050565b600067ffffffffffffffff821115610e2157610e20610d8b565b5b610e2a82610d7a565b9050602081019050919050565b82818337600083830152505050565b6000610e59610e5484610e06565b610deb565b905082815260208101848484011115610e7557610e74610d75565b5b610e80848285610e37565b509392505050565b600082601f830112610e9d57610e9c610d70565b5b8135610ead848260208601610e46565b91505092915050565b600063ffffffff82169050919050565b610ecf81610eb6565b8114610eda57600080fd5b50565b600081359050610eec81610ec6565b92915050565b600080600060608486031215610f0b57610f0a610d66565b5b600084013567ffffffffffffffff811115610f2957610f28610d6b565b5b610f3586828701610e88565b9350506020610f4686828701610edd565b925050604084013567ffffffffffffffff811115610f6757610f66610d6b565b5b610f7386828701610e88565b9150509250925092565b6000819050919050565b610f9081610f7d565b82525050565b6000602082019050610fab6000830184610f87565b92915050565b610fba81610f7d565b8114610fc557600080fd5b50565b600081359050610fd781610fb1565b92915050565b600080600080600060a08688031215610ff957610ff8610d66565b5b600086013567ffffffffffffffff81111561101757611016610d6b565b5b61102388828901610e88565b955050602086013567ffffffffffffffff81111561104457611043610d6b565b5b61105088828901610e88565b945050604061106188828901610fc8565b935050606061107288828901610edd565b925050608086013567ffffffffffffffff81111561109357611092610d6b565b5b61109f88828901610e88565b9150509295509295909350565b6000602082840312156110c2576110c1610d66565b5b60006110d084828501610fc8565b91505092915050565b600081519050919050565b600082825260208201905092915050565b60005b838110156111135780820151818401526020810190506110f8565b60008484015250505050565b600061112a826110d9565b61113481856110e4565b93506111448185602086016110f5565b61114d81610d7a565b840191505092915050565b61116181610eb6565b82525050565b600073ffffffffffffffffffffffffffffffffffffffff82169050919050565b600061119282611167565b9050919050565b6111a281611187565b82525050565b600060c08201905081810360008301526111c2818961111f565b905081810360208301526111d6818861111f565b90506111e56040830187610f87565b6111f26060830186611158565b6111ff6080830185611199565b81810360a0830152611211818461111f565b9050979650505050505050565b6000819050919050565b600061124361123e61123984611167565b61121e565b611167565b9050919050565b600061125582611228565b9050919050565b60006112678261124a565b9050919050565b6112778161125c565b82525050565b6000602082019050611292600083018461126e565b92915050565b6000602082840312156112ae576112ad610d66565b5b600082013567ffffffffffffffff8111156112cc576112cb610d6b565b5b6112d884828501610e88565b91505092915050565b600082825260208201905092915050565b60006112fd826110d9565b61130781856112e1565b93506113178185602086016110f5565b61132081610d7a565b840191505092915050565b61133481610f7d565b82525050565b61134381610eb6565b82525050565b61135281611187565b82525050565b600060c083016000830151848203600086015261137582826112f2565b9150506020830151848203602086015261138f82826112f2565b91505060408301516113a4604086018261132b565b5060608301516113b7606086018261133a565b5060808301516113ca6080860182611349565b5060a083015184820360a08601526113e282826112f2565b9150508091505092915050565b600060208201905081810360008301526114098184611358565b905092915050565b600081905092915050565b6000611427826110d9565b6114318185611411565b93506114418185602086016110f5565b80840191505092915050565b6000611459828461141c565b915081905092915050565b7f50726f6475637420646f6573206e6f7420657869737400000000000000000000600082015250565b600061149a6016836110e4565b91506114a582611464565b602082019050919050565b600060208201905081810360008301526114c98161148d565b9050919050565b7f4e487b7100000000000000000000000000000000000000000000000000000000600052601160045260246000fd5b600061150a82610f7d565b915061151583610f7d565b925082820261152381610f7d565b9150828204841483151761153a576115396114d0565b5b5092915050565b600061154c82610eb6565b915061155783610eb6565b9250828203905063ffffffff811115611573576115726114d0565b5b92915050565b7f496e73756666696369656e742062616c616e6365000000000000000000000000600082015250565b60006115af6014836110e4565b91506115ba82611579565b602082019050919050565b600060208201905081810360008301526115de816115a2565b9050919050565b7f4e487b7100000000000000000000000000000000000000000000000000000000600052602260045260246000fd5b6000600282049050600182168061162c57607f821691505b60208210810361163f5761163e6115e5565b5b50919050565b60008190508160005260206000209050919050565b6000815461166781611614565b61167181866110e4565b9450600182166000811461168c57600181146116a2576116d5565b60ff1983168652811515602002860193506116d5565b6116ab85611645565b60005b838110156116cd578154818901526001820191506020810190506116ae565b808801955050505b50505092915050565b600060e0820190506116f3600083018a610f87565b6117006020830189611158565b61170d6040830188610f87565b61171a6060830187611199565b6117276080830186611199565b81810360a0830152611739818561111f565b905081810360c083015261174d818461165a565b905098975050505050505050565b7f5072696365206d7573742062652067726561746572207468616e207a65726f00600082015250565b6000611791601f836110e4565b915061179c8261175b565b602082019050919050565b600060208201905081810360008301526117c081611784565b9050919050565b7f5175616e74697479206d7573742062652067726561746572207468616e207a6560008201527f726f000000000000000000000000000000000000000000000000000000000000602082015250565b60006118236022836110e4565b915061182e826117c7565b604082019050919050565b6000602082019050818103600083015261185281611816565b9050919050565b60006020601f8301049050919050565b600082821b905092915050565b6000600883026118a67fffffffffffffffffffffffffffffffffffffffffffffffffffffffffffffffff82611869565b6118b08683611869565b95508019841693508086168417925050509392505050565b60006118e36118de6118d984610f7d565b61121e565b610f7d565b9050919050565b6000819050919050565b6118fd836118c8565b611911611909826118ea565b848454611876565b825550505050565b600090565b611926611919565b6119318184846118f4565b505050565b5b818110156119555761194a60008261191e565b600181019050611937565b5050565b601f82111561199a5761196b81611645565b61197484611859565b81016020851015611983578190505b61199761198f85611859565b830182611936565b50505b505050565b600082821c905092915050565b60006119bd6000198460080261199f565b1980831691505092915050565b60006119d683836119ac565b9150826002028217905092915050565b6119ef826110d9565b67ffffffffffffffff811115611a0857611a07610d8b565b5b611a128254611614565b611a1d828285611959565b600060209050601f831160018114611a505760008415611a3e578287015190505b611a4885826119ca565b865550611ab0565b601f198416611a5e86611645565b60005b82811015611a8657848901518255600182019150602085019450602081019050611a61565b86831015611aa35784890151611a9f601f8916826119ac565b8355505b6001600288020188555050505b505050505050565b6000611ac382610f7d565b91507fffffffffffffffffffffffffffffffffffffffffffffffffffffffffffffffff8203611af557611af46114d0565b5b600182019050919050565b7f496e76616c69642070726f647563742049440000000000000000000000000000600082015250565b6000611b366012836110e4565b9150611b4182611b00565b602082019050919050565b60006020820190508181036000830152611b6581611b29565b905091905056fea2646970667358221220fafca1e675add8a75856099bdf1b4b4e9ed644bee8b5de68046f74058480cf8a64736f6c63430008180033",
  "linkReferences": {},
  "deployedLinkReferences": {}
}