{
  "_format": "hh-sol-artifact-1",
  "contractName": "TradeRecord",
  "sourceName": "contracts/marketplace/TradeRecord.sol",
  "abi": [
    {
      "inputs": [
        {
          "internalType": "address",
          "name": "_randomNumberContractAddress",
          "type": "address"
        }
      ],
      "stateMutability": "nonpayable",
      "type": "constructor"
    },
    {
      "inputs": [
        {
          "internalType": "uint256",
          "name": "_timestamp",
          "type": "uint256"
        },
        {
          "internalType": "uint32",
          "name": "_quantity",
          "type": "uint32"
        },
        {
          "internalType": "uint256",
          "name": "_price",
          "type": "uint256"
        },
        {
          "internalType": "address",
          "name": "_buyer",
          "type": "address"
        },
        {
          "internalType": "address",
          "name": "_seller",
          "type": "address"
        },
        {
          "internalType": "string",
          "name": "_buyerUuid",
          "type": "string"
        },
        {
          "internalType": "string",
          "name": "_sellerUuid",
          "type": "string"
        }
      ],
      "name": "addTradeRecord",
      "outputs": [],
      "stateMutability": "nonpayable",
      "type": "function"
    },
    {
      "inputs": [
        {
          "internalType": "address",
          "name": "_buyer",
          "type": "address"
        }
      ],
      "name": "getTransactionIndexesByBuyer",
      "outputs": [
        {
          "internalType": "uint256[]",
          "name": "",
          "type": "uint256[]"
        }
      ],
      "stateMutability": "view",
      "type": "function"
    },
    {
      "inputs": [
        {
          "internalType": "address",
          "name": "_seller",
          "type": "address"
        }
      ],
      "name": "getTransactionIndexesBySeller",
      "outputs": [
        {
          "internalType": "uint256[]",
          "name": "",
          "type": "uint256[]"
        }
      ],
      "stateMutability": "view",
      "type": "function"
    },
    {
      "inputs": [],
      "name": "transactionIndex",
      "outputs": [
        {
          "internalType": "uint256",
          "name": "",
          "type": "uint256"
        }
      ],
      "stateMutability": "view",
      "type": "function"
    },
    {
      "inputs": [
        {
          "internalType": "uint256",
          "name": "",
          "type": "uint256"
        }
      ],
      "name": "transactions",
      "outputs": [
        {
          "internalType": "uint256",
          "name": "timestamp",
          "type": "uint256"
        },
        {
          "internalType": "uint32",
          "name": "quantity",
          "type": "uint32"
        },
        {
          "internalType": "uint256",
          "name": "price",
          "type": "uint256"
        },
        {
          "internalType": "address",
          "name": "buyer",
          "type": "address"
        },
        {
          "internalType": "address",
          "name": "seller",
          "type": "address"
        },
        {
          "internalType": "string",
          "name": "buyerUuid",
          "type": "string"
        },
        {
          "internalType": "string",
          "name": "sellerUuid",
          "type": "string"
        },
        {
          "internalType": "uint256",
          "name": "recordUuid",
          "type": "uint256"
        }
      ],
      "stateMutability": "view",
      "type": "function"
    }
  ],
  "bytecode": "0x60806040523480156200001157600080fd5b50604051620011ed380380620011ed8339818101604052810190620000379190620000e9565b80600460006101000a81548173ffffffffffffffffffffffffffffffffffffffff021916908373ffffffffffffffffffffffffffffffffffffffff160217905550506200011b565b600080fd5b600073ffffffffffffffffffffffffffffffffffffffff82169050919050565b6000620000b18262000084565b9050919050565b620000c381620000a4565b8114620000cf57600080fd5b50565b600081519050620000e381620000b8565b92915050565b6000602082840312156200010257620001016200007f565b5b60006200011284828501620000d2565b91505092915050565b6110c2806200012b6000396000f3fe608060405234801561001057600080fd5b50600436106100575760003560e01c80632ae1efca1461005c5780636601e9b4146100785780636e6d44cc146100a85780639ace38c2146100d8578063b8220f6a1461010f575b600080fd5b6100766004803603810190610071919061095a565b61012d565b005b610092600480360381019061008d9190610a34565b610454565b60405161009f9190610b1f565b60405180910390f35b6100c260048036038101906100bd9190610a34565b6104eb565b6040516100cf9190610b1f565b60405180910390f35b6100f260048036038101906100ed9190610b41565b610582565b604051610106989796959493929190610c1a565b60405180910390f35b61011761072a565b6040516101249190610ca6565b60405180910390f35b6000600460009054906101000a900473ffffffffffffffffffffffffffffffffffffffff1673ffffffffffffffffffffffffffffffffffffffff1663176a0e966003548a61017b9190610cf0565b6040518263ffffffff1660e01b81526004016101979190610ca6565b602060405180830381865afa1580156101b4573d6000803e3d6000fd5b505050506040513d601f19601f820116820180604052508101906101d89190610d39565b905060006040518061010001604052808a81526020018963ffffffff1681526020018881526020018773ffffffffffffffffffffffffffffffffffffffff1681526020018673ffffffffffffffffffffffffffffffffffffffff1681526020018581526020018481526020018381525090508060008060035481526020019081526020016000206000820151816000015560208201518160010160006101000a81548163ffffffff021916908363ffffffff1602179055506040820151816002015560608201518160030160006101000a81548173ffffffffffffffffffffffffffffffffffffffff021916908373ffffffffffffffffffffffffffffffffffffffff16021790555060808201518160040160006101000a81548173ffffffffffffffffffffffffffffffffffffffff021916908373ffffffffffffffffffffffffffffffffffffffff16021790555060a082015181600501908161033d9190610f72565b5060c08201518160060190816103539190610f72565b5060e08201518160070155905050600160008773ffffffffffffffffffffffffffffffffffffffff1673ffffffffffffffffffffffffffffffffffffffff1681526020019081526020016000206003549080600181540180825580915050600190039060005260206000200160009091909190915055600260008673ffffffffffffffffffffffffffffffffffffffff1673ffffffffffffffffffffffffffffffffffffffff16815260200190815260200160002060035490806001815401808255809150506001900390600052602060002001600090919091909150556003600081548092919061044490611044565b9190505550505050505050505050565b6060600160008373ffffffffffffffffffffffffffffffffffffffff1673ffffffffffffffffffffffffffffffffffffffff1681526020019081526020016000208054806020026020016040519081016040528092919081815260200182805480156104df57602002820191906000526020600020905b8154815260200190600101908083116104cb575b50505050509050919050565b6060600260008373ffffffffffffffffffffffffffffffffffffffff1673ffffffffffffffffffffffffffffffffffffffff16815260200190815260200160002080548060200260200160405190810160405280929190818152602001828054801561057657602002820191906000526020600020905b815481526020019060010190808311610562575b50505050509050919050565b60006020528060005260406000206000915090508060000154908060010160009054906101000a900463ffffffff16908060020154908060030160009054906101000a900473ffffffffffffffffffffffffffffffffffffffff16908060040160009054906101000a900473ffffffffffffffffffffffffffffffffffffffff169080600501805461061390610d95565b80601f016020809104026020016040519081016040528092919081815260200182805461063f90610d95565b801561068c5780601f106106615761010080835404028352916020019161068c565b820191906000526020600020905b81548152906001019060200180831161066f57829003601f168201915b5050505050908060060180546106a190610d95565b80601f01602080910402602001604051908101604052809291908181526020018280546106cd90610d95565b801561071a5780601f106106ef5761010080835404028352916020019161071a565b820191906000526020600020905b8154815290600101906020018083116106fd57829003601f168201915b5050505050908060070154905088565b60035481565b6000604051905090565b600080fd5b600080fd5b6000819050919050565b61075781610744565b811461076257600080fd5b50565b6000813590506107748161074e565b92915050565b600063ffffffff82169050919050565b6107938161077a565b811461079e57600080fd5b50565b6000813590506107b08161078a565b92915050565b600073ffffffffffffffffffffffffffffffffffffffff82169050919050565b60006107e1826107b6565b9050919050565b6107f1816107d6565b81146107fc57600080fd5b50565b60008135905061080e816107e8565b92915050565b600080fd5b600080fd5b6000601f19601f8301169050919050565b7f4e487b7100000000000000000000000000000000000000000000000000000000600052604160045260246000fd5b6108678261081e565b810181811067ffffffffffffffff821117156108865761088561082f565b5b80604052505050565b6000610899610730565b90506108a5828261085e565b919050565b600067ffffffffffffffff8211156108c5576108c461082f565b5b6108ce8261081e565b9050602081019050919050565b82818337600083830152505050565b60006108fd6108f8846108aa565b61088f565b90508281526020810184848401111561091957610918610819565b5b6109248482856108db565b509392505050565b600082601f83011261094157610940610814565b5b81356109518482602086016108ea565b91505092915050565b600080600080600080600060e0888a0312156109795761097861073a565b5b60006109878a828b01610765565b97505060206109988a828b016107a1565b96505060406109a98a828b01610765565b95505060606109ba8a828b016107ff565b94505060806109cb8a828b016107ff565b93505060a088013567ffffffffffffffff8111156109ec576109eb61073f565b5b6109f88a828b0161092c565b92505060c088013567ffffffffffffffff811115610a1957610a1861073f565b5b610a258a828b0161092c565b91505092959891949750929550565b600060208284031215610a4a57610a4961073a565b5b6000610a58848285016107ff565b91505092915050565b600081519050919050565b600082825260208201905092915050565b6000819050602082019050919050565b610a9681610744565b82525050565b6000610aa88383610a8d565b60208301905092915050565b6000602082019050919050565b6000610acc82610a61565b610ad68185610a6c565b9350610ae183610a7d565b8060005b83811015610b12578151610af98882610a9c565b9750610b0483610ab4565b925050600181019050610ae5565b5085935050505092915050565b60006020820190508181036000830152610b398184610ac1565b905092915050565b600060208284031215610b5757610b5661073a565b5b6000610b6584828501610765565b91505092915050565b610b7781610744565b82525050565b610b868161077a565b82525050565b610b95816107d6565b82525050565b600081519050919050565b600082825260208201905092915050565b60005b83811015610bd5578082015181840152602081019050610bba565b60008484015250505050565b6000610bec82610b9b565b610bf68185610ba6565b9350610c06818560208601610bb7565b610c0f8161081e565b840191505092915050565b600061010082019050610c30600083018b610b6e565b610c3d602083018a610b7d565b610c4a6040830189610b6e565b610c576060830188610b8c565b610c646080830187610b8c565b81810360a0830152610c768186610be1565b905081810360c0830152610c8a8185610be1565b9050610c9960e0830184610b6e565b9998505050505050505050565b6000602082019050610cbb6000830184610b6e565b92915050565b7f4e487b7100000000000000000000000000000000000000000000000000000000600052601160045260246000fd5b6000610cfb82610744565b9150610d0683610744565b9250828201905080821115610d1e57610d1d610cc1565b5b92915050565b600081519050610d338161074e565b92915050565b600060208284031215610d4f57610d4e61073a565b5b6000610d5d84828501610d24565b91505092915050565b7f4e487b7100000000000000000000000000000000000000000000000000000000600052602260045260246000fd5b60006002820490506001821680610dad57607f821691505b602082108103610dc057610dbf610d66565b5b50919050565b60008190508160005260206000209050919050565b60006020601f8301049050919050565b600082821b905092915050565b600060088302610e287fffffffffffffffffffffffffffffffffffffffffffffffffffffffffffffffff82610deb565b610e328683610deb565b95508019841693508086168417925050509392505050565b6000819050919050565b6000610e6f610e6a610e6584610744565b610e4a565b610744565b9050919050565b6000819050919050565b610e8983610e54565b610e9d610e9582610e76565b848454610df8565b825550505050565b600090565b610eb2610ea5565b610ebd818484610e80565b505050565b5b81811015610ee157610ed6600082610eaa565b600181019050610ec3565b5050565b601f821115610f2657610ef781610dc6565b610f0084610ddb565b81016020851015610f0f578190505b610f23610f1b85610ddb565b830182610ec2565b50505b505050565b600082821c905092915050565b6000610f4960001984600802610f2b565b1980831691505092915050565b6000610f628383610f38565b9150826002028217905092915050565b610f7b82610b9b565b67ffffffffffffffff811115610f9457610f9361082f565b5b610f9e8254610d95565b610fa9828285610ee5565b600060209050601f831160018114610fdc5760008415610fca578287015190505b610fd48582610f56565b86555061103c565b601f198416610fea86610dc6565b60005b8281101561101257848901518255600182019150602085019450602081019050610fed565b8683101561102f578489015161102b601f891682610f38565b8355505b6001600288020188555050505b505050505050565b600061104f82610744565b91507fffffffffffffffffffffffffffffffffffffffffffffffffffffffffffffffff820361108157611080610cc1565b5b60018201905091905056fea264697066735822122010a96a841df86da19f6d2673d61427256f1ae707d53cf9411fb59e74fe3f3f0564736f6c63430008180033",
  "linkReferences": {},
  "deployedLinkReferences": {}
}