{
  "_format": "hh-sol-artifact-1",
  "contractName": "TradeRecord",
  "sourceName": "contracts/marketplace/TradeRecord.sol",
  "abi": [
    {
      "inputs": [
        {
          "internalType": "address",
          "name": "_randomNumberContractAddress",
          "type": "address"
        }
      ],
      "stateMutability": "nonpayable",
      "type": "constructor"
    },
    {
      "inputs": [
        {
          "internalType": "uint256",
          "name": "_timestamp",
          "type": "uint256"
        },
        {
          "internalType": "uint32",
          "name": "_quantity",
          "type": "uint32"
        },
        {
          "internalType": "uint256",
          "name": "_price",
          "type": "uint256"
        },
        {
          "internalType": "address",
          "name": "_buyer",
          "type": "address"
        },
        {
          "internalType": "address",
          "name": "_seller",
          "type": "address"
        },
        {
          "internalType": "string",
          "name": "_buyerUuid",
          "type": "string"
        },
        {
          "internalType": "string",
          "name": "_sellerUuid",
          "type": "string"
        },
        {
          "internalType": "string",
          "name": "_metaUuid",
          "type": "string"
        },
        {
          "internalType": "string",
          "name": "_productName",
          "type": "string"
        }
      ],
      "name": "addTradeRecord",
      "outputs": [],
      "stateMutability": "nonpayable",
      "type": "function"
    },
    {
      "inputs": [
        {
          "internalType": "address",
          "name": "_buyer",
          "type": "address"
        }
      ],
      "name": "getTransactionByBuyer",
      "outputs": [
        {
          "components": [
            {
              "internalType": "uint256",
              "name": "timestamp",
              "type": "uint256"
            },
            {
              "internalType": "uint32",
              "name": "quantity",
              "type": "uint32"
            },
            {
              "internalType": "uint256",
              "name": "price",
              "type": "uint256"
            },
            {
              "internalType": "address",
              "name": "buyer",
              "type": "address"
            },
            {
              "internalType": "address",
              "name": "seller",
              "type": "address"
            },
            {
              "internalType": "string",
              "name": "buyerUuid",
              "type": "string"
            },
            {
              "internalType": "string",
              "name": "sellerUuid",
              "type": "string"
            },
            {
              "internalType": "uint256",
              "name": "recordUuid",
              "type": "uint256"
            },
            {
              "internalType": "string",
              "name": "name",
              "type": "string"
            },
            {
              "internalType": "string",
              "name": "metaUuid",
              "type": "string"
            }
          ],
          "internalType": "struct TradeRecord.Transaction[]",
          "name": "",
          "type": "tuple[]"
        }
      ],
      "stateMutability": "view",
      "type": "function"
    },
    {
      "inputs": [
        {
          "internalType": "address",
          "name": "_seller",
          "type": "address"
        }
      ],
      "name": "getTransactionBySeller",
      "outputs": [
        {
          "components": [
            {
              "internalType": "uint256",
              "name": "timestamp",
              "type": "uint256"
            },
            {
              "internalType": "uint32",
              "name": "quantity",
              "type": "uint32"
            },
            {
              "internalType": "uint256",
              "name": "price",
              "type": "uint256"
            },
            {
              "internalType": "address",
              "name": "buyer",
              "type": "address"
            },
            {
              "internalType": "address",
              "name": "seller",
              "type": "address"
            },
            {
              "internalType": "string",
              "name": "buyerUuid",
              "type": "string"
            },
            {
              "internalType": "string",
              "name": "sellerUuid",
              "type": "string"
            },
            {
              "internalType": "uint256",
              "name": "recordUuid",
              "type": "uint256"
            },
            {
              "internalType": "string",
              "name": "name",
              "type": "string"
            },
            {
              "internalType": "string",
              "name": "metaUuid",
              "type": "string"
            }
          ],
          "internalType": "struct TradeRecord.Transaction[]",
          "name": "",
          "type": "tuple[]"
        }
      ],
      "stateMutability": "view",
      "type": "function"
    },
    {
      "inputs": [],
      "name": "transactionIndex",
      "outputs": [
        {
          "internalType": "uint256",
          "name": "",
          "type": "uint256"
        }
      ],
      "stateMutability": "view",
      "type": "function"
    },
    {
      "inputs": [
        {
          "internalType": "uint256",
          "name": "",
          "type": "uint256"
        }
      ],
      "name": "transactions",
      "outputs": [
        {
          "internalType": "uint256",
          "name": "timestamp",
          "type": "uint256"
        },
        {
          "internalType": "uint32",
          "name": "quantity",
          "type": "uint32"
        },
        {
          "internalType": "uint256",
          "name": "price",
          "type": "uint256"
        },
        {
          "internalType": "address",
          "name": "buyer",
          "type": "address"
        },
        {
          "internalType": "address",
          "name": "seller",
          "type": "address"
        },
        {
          "internalType": "string",
          "name": "buyerUuid",
          "type": "string"
        },
        {
          "internalType": "string",
          "name": "sellerUuid",
          "type": "string"
        },
        {
          "internalType": "uint256",
          "name": "recordUuid",
          "type": "uint256"
        },
        {
          "internalType": "string",
          "name": "name",
          "type": "string"
        },
        {
          "internalType": "string",
          "name": "metaUuid",
          "type": "string"
        }
      ],
      "stateMutability": "view",
      "type": "function"
    }
  ],
  "bytecode": "0x60806040523480156200001157600080fd5b5060405162001e0d38038062001e0d8339818101604052810190620000379190620000e9565b80600460006101000a81548173ffffffffffffffffffffffffffffffffffffffff021916908373ffffffffffffffffffffffffffffffffffffffff160217905550506200011b565b600080fd5b600073ffffffffffffffffffffffffffffffffffffffff82169050919050565b6000620000b18262000084565b9050919050565b620000c381620000a4565b8114620000cf57600080fd5b50565b600081519050620000e381620000b8565b92915050565b6000602082840312156200010257620001016200007f565b5b60006200011284828501620000d2565b91505092915050565b611ce2806200012b6000396000f3fe608060405234801561001057600080fd5b50600436106100575760003560e01c80637bc064c91461005c5780639ace38c214610078578063adad1364146100b1578063b8220f6a146100e1578063e00450a0146100ff575b600080fd5b61007660048036038101906100719190611355565b61012f565b005b610092600480360381019061008d919061148f565b610492565b6040516100a89a99989796959493929190611568565b60405180910390f35b6100cb60048036038101906100c69190611620565b610756565b6040516100d89190611875565b60405180910390f35b6100e9610bfb565b6040516100f69190611897565b60405180910390f35b61011960048036038101906101149190611620565b610c01565b6040516101269190611875565b60405180910390f35b6000600460009054906101000a900473ffffffffffffffffffffffffffffffffffffffff1673ffffffffffffffffffffffffffffffffffffffff1663176a0e966003548c61017d91906118e1565b6040518263ffffffff1660e01b81526004016101999190611897565b602060405180830381865afa1580156101b6573d6000803e3d6000fd5b505050506040513d601f19601f820116820180604052508101906101da919061192a565b905060006040518061014001604052808c81526020018b63ffffffff1681526020018a81526020018973ffffffffffffffffffffffffffffffffffffffff1681526020018873ffffffffffffffffffffffffffffffffffffffff1681526020018781526020018681526020018381526020018481526020018581525090508060008060035481526020019081526020016000206000820151816000015560208201518160010160006101000a81548163ffffffff021916908363ffffffff1602179055506040820151816002015560608201518160030160006101000a81548173ffffffffffffffffffffffffffffffffffffffff021916908373ffffffffffffffffffffffffffffffffffffffff16021790555060808201518160040160006101000a81548173ffffffffffffffffffffffffffffffffffffffff021916908373ffffffffffffffffffffffffffffffffffffffff16021790555060a082015181600501908161034b9190611b63565b5060c08201518160060190816103619190611b63565b5060e082015181600701556101008201518160080190816103829190611b63565b506101208201518160090190816103999190611b63565b50905050600160008973ffffffffffffffffffffffffffffffffffffffff1673ffffffffffffffffffffffffffffffffffffffff1681526020019081526020016000206003549080600181540180825580915050600190039060005260206000200160009091909190915055600260008873ffffffffffffffffffffffffffffffffffffffff1673ffffffffffffffffffffffffffffffffffffffff16815260200190815260200160002060035490806001815401808255809150506001900390600052602060002001600090919091909150556003600081548092919061048090611c35565b91905055505050505050505050505050565b60006020528060005260406000206000915090508060000154908060010160009054906101000a900463ffffffff16908060020154908060030160009054906101000a900473ffffffffffffffffffffffffffffffffffffffff16908060040160009054906101000a900473ffffffffffffffffffffffffffffffffffffffff169080600501805461052390611986565b80601f016020809104026020016040519081016040528092919081815260200182805461054f90611986565b801561059c5780601f106105715761010080835404028352916020019161059c565b820191906000526020600020905b81548152906001019060200180831161057f57829003601f168201915b5050505050908060060180546105b190611986565b80601f01602080910402602001604051908101604052809291908181526020018280546105dd90611986565b801561062a5780601f106105ff5761010080835404028352916020019161062a565b820191906000526020600020905b81548152906001019060200180831161060d57829003601f168201915b50505050509080600701549080600801805461064590611986565b80601f016020809104026020016040519081016040528092919081815260200182805461067190611986565b80156106be5780601f10610693576101008083540402835291602001916106be565b820191906000526020600020905b8154815290600101906020018083116106a157829003601f168201915b5050505050908060090180546106d390611986565b80601f01602080910402602001604051908101604052809291908181526020018280546106ff90611986565b801561074c5780601f106107215761010080835404028352916020019161074c565b820191906000526020600020905b81548152906001019060200180831161072f57829003601f168201915b505050505090508a565b60606000600160008473ffffffffffffffffffffffffffffffffffffffff1673ffffffffffffffffffffffffffffffffffffffff1681526020019081526020016000208054806020026020016040519081016040528092919081815260200182805480156107e357602002820191906000526020600020905b8154815260200190600101908083116107cf575b505050505090506000815167ffffffffffffffff8111156108075761080661122a565b5b60405190808252806020026020018201604052801561084057816020015b61082d6110a6565b8152602001906001900390816108255790505b50905060005b8251811015610bf057600083828151811061086457610863611c7d565b5b6020026020010151905060008082815260200190815260200160002060405180610140016040529081600082015481526020016001820160009054906101000a900463ffffffff1663ffffffff1663ffffffff168152602001600282015481526020016003820160009054906101000a900473ffffffffffffffffffffffffffffffffffffffff1673ffffffffffffffffffffffffffffffffffffffff1673ffffffffffffffffffffffffffffffffffffffff1681526020016004820160009054906101000a900473ffffffffffffffffffffffffffffffffffffffff1673ffffffffffffffffffffffffffffffffffffffff1673ffffffffffffffffffffffffffffffffffffffff16815260200160058201805461098290611986565b80601f01602080910402602001604051908101604052809291908181526020018280546109ae90611986565b80156109fb5780601f106109d0576101008083540402835291602001916109fb565b820191906000526020600020905b8154815290600101906020018083116109de57829003601f168201915b50505050508152602001600682018054610a1490611986565b80601f0160208091040260200160405190810160405280929190818152602001828054610a4090611986565b8015610a8d5780601f10610a6257610100808354040283529160200191610a8d565b820191906000526020600020905b815481529060010190602001808311610a7057829003601f168201915b5050505050815260200160078201548152602001600882018054610ab090611986565b80601f0160208091040260200160405190810160405280929190818152602001828054610adc90611986565b8015610b295780601f10610afe57610100808354040283529160200191610b29565b820191906000526020600020905b815481529060010190602001808311610b0c57829003601f168201915b50505050508152602001600982018054610b4290611986565b80601f0160208091040260200160405190810160405280929190818152602001828054610b6e90611986565b8015610bbb5780601f10610b9057610100808354040283529160200191610bbb565b820191906000526020600020905b815481529060010190602001808311610b9e57829003601f168201915b505050505081525050838381518110610bd757610bd6611c7d565b5b6020026020010181905250508080600101915050610846565b508092505050919050565b60035481565b60606000600260008473ffffffffffffffffffffffffffffffffffffffff1673ffffffffffffffffffffffffffffffffffffffff168152602001908152602001600020805480602002602001604051908101604052809291908181526020018280548015610c8e57602002820191906000526020600020905b815481526020019060010190808311610c7a575b505050505090506000815167ffffffffffffffff811115610cb257610cb161122a565b5b604051908082528060200260200182016040528015610ceb57816020015b610cd86110a6565b815260200190600190039081610cd05790505b50905060005b825181101561109b576000838281518110610d0f57610d0e611c7d565b5b6020026020010151905060008082815260200190815260200160002060405180610140016040529081600082015481526020016001820160009054906101000a900463ffffffff1663ffffffff1663ffffffff168152602001600282015481526020016003820160009054906101000a900473ffffffffffffffffffffffffffffffffffffffff1673ffffffffffffffffffffffffffffffffffffffff1673ffffffffffffffffffffffffffffffffffffffff1681526020016004820160009054906101000a900473ffffffffffffffffffffffffffffffffffffffff1673ffffffffffffffffffffffffffffffffffffffff1673ffffffffffffffffffffffffffffffffffffffff168152602001600582018054610e2d90611986565b80601f0160208091040260200160405190810160405280929190818152602001828054610e5990611986565b8015610ea65780601f10610e7b57610100808354040283529160200191610ea6565b820191906000526020600020905b815481529060010190602001808311610e8957829003601f168201915b50505050508152602001600682018054610ebf90611986565b80601f0160208091040260200160405190810160405280929190818152602001828054610eeb90611986565b8015610f385780601f10610f0d57610100808354040283529160200191610f38565b820191906000526020600020905b815481529060010190602001808311610f1b57829003601f168201915b5050505050815260200160078201548152602001600882018054610f5b90611986565b80601f0160208091040260200160405190810160405280929190818152602001828054610f8790611986565b8015610fd45780601f10610fa957610100808354040283529160200191610fd4565b820191906000526020600020905b815481529060010190602001808311610fb757829003601f168201915b50505050508152602001600982018054610fed90611986565b80601f016020809104026020016040519081016040528092919081815260200182805461101990611986565b80156110665780601f1061103b57610100808354040283529160200191611066565b820191906000526020600020905b81548152906001019060200180831161104957829003601f168201915b50505050508152505083838151811061108257611081611c7d565b5b6020026020010181905250508080600101915050610cf1565b508092505050919050565b60405180610140016040528060008152602001600063ffffffff16815260200160008152602001600073ffffffffffffffffffffffffffffffffffffffff168152602001600073ffffffffffffffffffffffffffffffffffffffff16815260200160608152602001606081526020016000815260200160608152602001606081525090565b6000604051905090565b600080fd5b600080fd5b6000819050919050565b6111528161113f565b811461115d57600080fd5b50565b60008135905061116f81611149565b92915050565b600063ffffffff82169050919050565b61118e81611175565b811461119957600080fd5b50565b6000813590506111ab81611185565b92915050565b600073ffffffffffffffffffffffffffffffffffffffff82169050919050565b60006111dc826111b1565b9050919050565b6111ec816111d1565b81146111f757600080fd5b50565b600081359050611209816111e3565b92915050565b600080fd5b600080fd5b6000601f19601f8301169050919050565b7f4e487b7100000000000000000000000000000000000000000000000000000000600052604160045260246000fd5b61126282611219565b810181811067ffffffffffffffff821117156112815761128061122a565b5b80604052505050565b600061129461112b565b90506112a08282611259565b919050565b600067ffffffffffffffff8211156112c0576112bf61122a565b5b6112c982611219565b9050602081019050919050565b82818337600083830152505050565b60006112f86112f3846112a5565b61128a565b90508281526020810184848401111561131457611313611214565b5b61131f8482856112d6565b509392505050565b600082601f83011261133c5761133b61120f565b5b813561134c8482602086016112e5565b91505092915050565b60008060008060008060008060006101208a8c03121561137857611377611135565b5b60006113868c828d01611160565b99505060206113978c828d0161119c565b98505060406113a88c828d01611160565b97505060606113b98c828d016111fa565b96505060806113ca8c828d016111fa565b95505060a08a013567ffffffffffffffff8111156113eb576113ea61113a565b5b6113f78c828d01611327565b94505060c08a013567ffffffffffffffff8111156114185761141761113a565b5b6114248c828d01611327565b93505060e08a013567ffffffffffffffff8111156114455761144461113a565b5b6114518c828d01611327565b9250506101008a013567ffffffffffffffff8111156114735761147261113a565b5b61147f8c828d01611327565b9150509295985092959850929598565b6000602082840312156114a5576114a4611135565b5b60006114b384828501611160565b91505092915050565b6114c58161113f565b82525050565b6114d481611175565b82525050565b6114e3816111d1565b82525050565b600081519050919050565b600082825260208201905092915050565b60005b83811015611523578082015181840152602081019050611508565b60008484015250505050565b600061153a826114e9565b61154481856114f4565b9350611554818560208601611505565b61155d81611219565b840191505092915050565b60006101408201905061157e600083018d6114bc565b61158b602083018c6114cb565b611598604083018b6114bc565b6115a5606083018a6114da565b6115b260808301896114da565b81810360a08301526115c4818861152f565b905081810360c08301526115d8818761152f565b90506115e760e08301866114bc565b8181036101008301526115fa818561152f565b905081810361012083015261160f818461152f565b90509b9a5050505050505050505050565b60006020828403121561163657611635611135565b5b6000611644848285016111fa565b91505092915050565b600081519050919050565b600082825260208201905092915050565b6000819050602082019050919050565b6116828161113f565b82525050565b61169181611175565b82525050565b6116a0816111d1565b82525050565b600082825260208201905092915050565b60006116c2826114e9565b6116cc81856116a6565b93506116dc818560208601611505565b6116e581611219565b840191505092915050565b6000610140830160008301516117096000860182611679565b50602083015161171c6020860182611688565b50604083015161172f6040860182611679565b5060608301516117426060860182611697565b5060808301516117556080860182611697565b5060a083015184820360a086015261176d82826116b7565b91505060c083015184820360c086015261178782826116b7565b91505060e083015161179c60e0860182611679565b506101008301518482036101008601526117b682826116b7565b9150506101208301518482036101208601526117d282826116b7565b9150508091505092915050565b60006117eb83836116f0565b905092915050565b6000602082019050919050565b600061180b8261164d565b6118158185611658565b93508360208202850161182785611669565b8060005b85811015611863578484038952815161184485826117df565b945061184f836117f3565b925060208a0199505060018101905061182b565b50829750879550505050505092915050565b6000602082019050818103600083015261188f8184611800565b905092915050565b60006020820190506118ac60008301846114bc565b92915050565b7f4e487b7100000000000000000000000000000000000000000000000000000000600052601160045260246000fd5b60006118ec8261113f565b91506118f78361113f565b925082820190508082111561190f5761190e6118b2565b5b92915050565b60008151905061192481611149565b92915050565b6000602082840312156119405761193f611135565b5b600061194e84828501611915565b91505092915050565b7f4e487b7100000000000000000000000000000000000000000000000000000000600052602260045260246000fd5b6000600282049050600182168061199e57607f821691505b6020821081036119b1576119b0611957565b5b50919050565b60008190508160005260206000209050919050565b60006020601f8301049050919050565b600082821b905092915050565b600060088302611a197fffffffffffffffffffffffffffffffffffffffffffffffffffffffffffffffff826119dc565b611a2386836119dc565b95508019841693508086168417925050509392505050565b6000819050919050565b6000611a60611a5b611a568461113f565b611a3b565b61113f565b9050919050565b6000819050919050565b611a7a83611a45565b611a8e611a8682611a67565b8484546119e9565b825550505050565b600090565b611aa3611a96565b611aae818484611a71565b505050565b5b81811015611ad257611ac7600082611a9b565b600181019050611ab4565b5050565b601f821115611b1757611ae8816119b7565b611af1846119cc565b81016020851015611b00578190505b611b14611b0c856119cc565b830182611ab3565b50505b505050565b600082821c905092915050565b6000611b3a60001984600802611b1c565b1980831691505092915050565b6000611b538383611b29565b9150826002028217905092915050565b611b6c826114e9565b67ffffffffffffffff811115611b8557611b8461122a565b5b611b8f8254611986565b611b9a828285611ad6565b600060209050601f831160018114611bcd5760008415611bbb578287015190505b611bc58582611b47565b865550611c2d565b601f198416611bdb866119b7565b60005b82811015611c0357848901518255600182019150602085019450602081019050611bde565b86831015611c205784890151611c1c601f891682611b29565b8355505b6001600288020188555050505b505050505050565b6000611c408261113f565b91507fffffffffffffffffffffffffffffffffffffffffffffffffffffffffffffffff8203611c7257611c716118b2565b5b600182019050919050565b7f4e487b7100000000000000000000000000000000000000000000000000000000600052603260045260246000fdfea2646970667358221220f6043665e5a642553c65af69ac01dd923d7c4499f0845b0fb7b43237be7c95cf64736f6c63430008180033",
  "linkReferences": {},
  "deployedLinkReferences": {}
}